{
  "contractName": "ClaimContract",
  "abi": [
    {
      "constant": true,
      "inputs": [],
      "name": "claimCount",
      "outputs": [
        {
          "name": "",
          "type": "uint256"
        }
      ],
      "payable": false,
      "stateMutability": "view",
      "type": "function",
      "signature": "0x8da4d3c9"
    },
    {
      "constant": true,
      "inputs": [
        {
          "name": "",
          "type": "uint256"
        }
      ],
      "name": "claims",
      "outputs": [
        {
          "name": "claimID",
          "type": "uint256"
        },
        {
          "name": "location",
          "type": "string"
        },
        {
          "name": "cropType",
          "type": "string"
        },
        {
          "name": "estimatedYieldBefore",
          "type": "uint256"
        },
        {
          "name": "estimatedYieldAfter",
          "type": "uint256"
        },
        {
          "name": "verified",
          "type": "bool"
        },
        {
          "name": "compensationAmount",
          "type": "uint256"
        }
      ],
      "payable": false,
      "stateMutability": "view",
      "type": "function",
      "signature": "0xa888c2cd"
    },
    {
      "anonymous": false,
      "inputs": [
        {
          "indexed": false,
          "name": "claimID",
          "type": "uint256"
        },
        {
          "indexed": false,
          "name": "location",
          "type": "string"
        },
        {
          "indexed": false,
          "name": "cropType",
          "type": "string"
        },
        {
          "indexed": false,
          "name": "estimatedYieldBefore",
          "type": "uint256"
        },
        {
          "indexed": false,
          "name": "estimatedYieldAfter",
          "type": "uint256"
        },
        {
          "indexed": false,
          "name": "verified",
          "type": "bool"
        },
        {
          "indexed": false,
          "name": "compensationAmount",
          "type": "uint256"
        }
      ],
      "name": "ClaimSubmitted",
      "type": "event",
      "signature": "0xa8c76078b174df0d5b3a1069bf0e1deacedd96c1667df3da74c5346991b13fd2"
    },
    {
      "anonymous": false,
      "inputs": [
        {
          "indexed": false,
          "name": "id",
          "type": "uint256"
        },
        {
          "indexed": false,
          "name": "verified",
          "type": "bool"
        }
      ],
      "name": "ClaimVerified",
      "type": "event",
      "signature": "0x9e8fe802f6bd854d92f147c664b81e4b4f9e780d622c36478a2b2ec78f748a40"
    },
    {
      "constant": false,
      "inputs": [
        {
          "name": "_location",
          "type": "string"
        },
        {
          "name": "_cropType",
          "type": "string"
        },
        {
          "name": "_estimatedYieldBefore",
          "type": "uint256"
        },
        {
          "name": "_estimatedYieldAfter",
          "type": "uint256"
        }
      ],
      "name": "submitClaim",
      "outputs": [],
      "payable": false,
      "stateMutability": "nonpayable",
      "type": "function",
      "signature": "0x680e0f43"
    },
    {
      "constant": false,
      "inputs": [
        {
          "name": "_claimId",
          "type": "uint256"
        },
        {
          "name": "_vote",
          "type": "uint256"
        }
      ],
      "name": "voteForClaim",
      "outputs": [],
      "payable": false,
      "stateMutability": "nonpayable",
      "type": "function",
      "signature": "0x8050cf43"
    },
    {
      "constant": false,
      "inputs": [
        {
          "name": "_claimId",
          "type": "uint256"
        }
      ],
      "name": "calculateConsensus",
      "outputs": [],
      "payable": false,
      "stateMutability": "nonpayable",
      "type": "function",
      "signature": "0xb4bc4dd4"
    },
    {
      "constant": false,
      "inputs": [
        {
          "name": "_claimId",
          "type": "uint256"
        },
        {
          "name": "_compensationAmount",
          "type": "uint256"
        }
      ],
      "name": "compensateClaim",
      "outputs": [],
      "payable": false,
      "stateMutability": "nonpayable",
      "type": "function",
      "signature": "0x94e22f2e"
    }
  ],
  "bytecode": "0x60806040526000805534801561001457600080fd5b50610a18806100246000396000f3fe6080604052600436106100775763ffffffff7c0100000000000000000000000000000000000000000000000000000000600035041663680e0f43811461007c5780638050cf43146101bd5780638da4d3c9146101ed57806394e22f2e14610214578063a888c2cd14610244578063b4bc4dd414610373575b600080fd5b34801561008857600080fd5b506101bb6004803603608081101561009f57600080fd5b8101906020810181356401000000008111156100ba57600080fd5b8201836020820111156100cc57600080fd5b803590602001918460018302840111640100000000831117156100ee57600080fd5b91908080601f016020809104026020016040519081016040528093929190818152602001838380828437600092019190915250929594936020810193503591505064010000000081111561014157600080fd5b82018360208201111561015357600080fd5b8035906020019184600183028401116401000000008311171561017557600080fd5b91908080601f016020809104026020016040519081016040528093929190818152602001838380828437600092019190915250929550508235935050506020013561039d565b005b3480156101c957600080fd5b506101bb600480360360408110156101e057600080fd5b508035906020013561059a565b3480156101f957600080fd5b50610202610635565b60408051918252519081900360200190f35b34801561022057600080fd5b506101bb6004803603604081101561023757600080fd5b508035906020013561063b565b34801561025057600080fd5b5061026e6004803603602081101561026757600080fd5b50356106d2565b60405180888152602001806020018060200187815260200186815260200185151515158152602001848152602001838103835289818151815260200191508051906020019080838360005b838110156102d15781810151838201526020016102b9565b50505050905090810190601f1680156102fe5780820380516001836020036101000a031916815260200191505b5083810382528851815288516020918201918a019080838360005b83811015610331578181015183820152602001610319565b50505050905090810190601f16801561035e5780820380516001836020036101000a031916815260200191505b50995050505050505050505060405180910390f35b34801561037f57600080fd5b506101bb6004803603602081101561039657600080fd5b5035610828565b6000805460019081018083556040805160e08101825282815260208082018a81528284018a9052606083018990526080830188905260a0830187905260c0830187905293865260028152919094208451815591518051929361040793908501929190910190610951565b5060408201518051610423916002840191602090910190610951565b50606082015181600301556080820151816004015560a08201518160050160006101000a81548160ff02191690831515021790555060c082015181600601559050507fa8c76078b174df0d5b3a1069bf0e1deacedd96c1667df3da74c5346991b13fd26000548585858560008060405180888152602001806020018060200187815260200186815260200185151515158152602001848152602001838103835289818151815260200191508051906020019080838360005b838110156104f35781810151838201526020016104db565b50505050905090810190601f1680156105205780820380516001836020036101000a031916815260200191505b5083810382528851815288516020918201918a019080838360005b8381101561055357818101518382015260200161053b565b50505050905090810190601f1680156105805780820380516001836020036101000a031916815260200191505b50995050505050505050505060405180910390a150505050565b6000828152600260205260409020600581015460ff161561061c57604080517f08c379a000000000000000000000000000000000000000000000000000000000815260206004820152601960248201527f436c61696d20697320616c726561647920766572696669656400000000000000604482015290519081900360640190fd5b5060009182526001602052604090912080549091019055565b60005481565b60008281526002602052604090206005015460ff1615156106bd57604080517f08c379a000000000000000000000000000000000000000000000000000000000815260206004820152601660248201527f436c61696d206d75737420626520766572696669656400000000000000000000604482015290519081900360640190fd5b60009182526002602052604090912060060155565b60026020818152600092835260409283902080546001808301805487519281161561010002600019011695909504601f810185900485028201850190965285815290949193909290919083018282801561076d5780601f106107425761010080835404028352916020019161076d565b820191906000526020600020905b81548152906001019060200180831161075057829003601f168201915b50505060028085018054604080516020601f60001961010060018716150201909416959095049283018590048502810185019091528181529596959450909250908301828280156107ff5780601f106107d4576101008083540402835291602001916107ff565b820191906000526020600020905b8154815290600101906020018083116107e257829003601f168201915b5050506003840154600485015460058601546006909601549495919490935060ff909116915087565b6000818152600260205260409020600581015460ff16156108aa57604080517f08c379a000000000000000000000000000000000000000000000000000000000815260206004820152601960248201527f436c61696d20697320616c726561647920766572696669656400000000000000604482015290519081900360640190fd5b60008281526001602052604081205411156109115760058101805460ff1916600190811790915560408051848152602081019290925280517f9e8fe802f6bd854d92f147c664b81e4b4f9e780d622c36478a2b2ec78f748a409281900390910190a161094d565b604080518381526000602082015281517f9e8fe802f6bd854d92f147c664b81e4b4f9e780d622c36478a2b2ec78f748a40929181900390910190a15b5050565b828054600181600116156101000203166002900490600052602060002090601f016020900481019282601f1061099257805160ff19168380011785556109bf565b828001600101855582156109bf579182015b828111156109bf5782518255916020019190600101906109a4565b506109cb9291506109cf565b5090565b6109e991905b808211156109cb57600081556001016109d5565b9056fea165627a7a72305820a58b62afe131703e12dac5ea077b234d8474e2915b06a48ccb87c8e5228274000029",
  "source": "// SPDX-License-Identifier: MIT\r\npragma solidity ^0.5.0;\r\n\r\ncontract ClaimContract {\r\n    uint public claimCount = 0;\r\n    mapping(uint256 => uint256) votes;\r\n    // Structure to represent a claim\r\n    struct Claim {\r\n        uint claimID;\r\n        string location;\r\n        string cropType;\r\n        uint256 estimatedYieldBefore;\r\n        uint256 estimatedYieldAfter;\r\n        bool verified;\r\n        uint256 compensationAmount;\r\n    }\r\n\r\n    // Mapping to store claims by claim ID\r\n    mapping(uint256 => Claim) public claims;\r\n\r\n    // Event to create claim\r\n    event ClaimSubmitted(\r\n        uint claimID,\r\n        string location,\r\n        string cropType,\r\n        uint256 estimatedYieldBefore,\r\n        uint256 estimatedYieldAfter,\r\n        bool verified,\r\n        uint256 compensationAmount\r\n    );\r\n\r\n\r\n    event ClaimVerified(\r\n        uint256 id,\r\n        bool verified\r\n    );\r\n\r\n    // Function to submit a new claim\r\n    function submitClaim(string memory _location, string memory _cropType, uint256 _estimatedYieldBefore, uint256 _estimatedYieldAfter) public {\r\n        // Generate a unique claim ID\r\n        claimCount++;\r\n\r\n        // Create a new claim\r\n        claims[claimCount] = Claim(claimCount, _location, _cropType, _estimatedYieldBefore, _estimatedYieldAfter, false, 0);\r\n\r\n        // Emit an event\r\n        emit ClaimSubmitted(claimCount, _location, _cropType, _estimatedYieldBefore, _estimatedYieldAfter, false, 0);\r\n    }\r\n\r\n    // Function for users to vote on claim verification\r\n    function voteForClaim(uint256 _claimId, uint256 _vote) public {\r\n        Claim storage _claim = claims[_claimId];\r\n        require(!_claim.verified, \"Claim is already verified\");\r\n        votes[_claimId] += _vote;\r\n    }\r\n\r\n    // Function to calculate consensus and verify the claim\r\n    function calculateConsensus(uint256 _claimId) public {\r\n        Claim storage _claim = claims[_claimId];\r\n        require(!_claim.verified, \"Claim is already verified\");\r\n\r\n        // Verify the claim if the majority of votes are yes\r\n        if (votes[_claimId] > 0) {\r\n            _claim.verified = true;\r\n            emit ClaimVerified(_claimId, true);\r\n        } else {\r\n            emit ClaimVerified(_claimId, false);\r\n        }\r\n    }\r\n\r\n    // Function to compensate a verified claim\r\n    function compensateClaim(uint256 _claimId, uint256 _compensationAmount) public {\r\n        require(claims[_claimId].verified, \"Claim must be verified\");\r\n        claims[_claimId].compensationAmount = _compensationAmount;\r\n    }\r\n}\r\n",
  "sourcePath": "C:/Users/Shreyas/Desktop/HackX/AgriGuard/agriguard/eth-todo-list/contracts/ClaimContract.sol",
  "compiler": {
    "name": "solc",
    "version": "0.5.0+commit.1d4f565a.Emscripten.clang"
  },
  "schemaVersion": "3.0.1",
  "updatedAt": "2024-03-22T14:51:38.755Z",
  "devdoc": {
    "methods": {}
  },
  "userdoc": {
    "methods": {}
  }
}